{
  "contractName": "Hodler",
  "abi": [
    {
      "constant": true,
      "inputs": [
        {
          "name": "",
          "type": "address"
        }
      ],
      "name": "hodlers",
      "outputs": [
        {
          "name": "balance",
          "type": "uint256"
        },
        {
          "name": "depositTime",
          "type": "uint256"
        }
      ],
      "payable": false,
      "stateMutability": "view",
      "type": "function"
    },
    {
      "payable": true,
      "stateMutability": "payable",
      "type": "fallback"
    },
    {
      "anonymous": false,
      "inputs": [
        {
          "indexed": true,
          "name": "hodler",
          "type": "address"
        },
        {
          "indexed": true,
          "name": "amount",
          "type": "uint256"
        }
      ],
      "name": "hodl",
      "type": "event"
    },
    {
      "anonymous": false,
      "inputs": [
        {
          "indexed": true,
          "name": "hodler",
          "type": "address"
        },
        {
          "indexed": true,
          "name": "amount",
          "type": "uint256"
        }
      ],
      "name": "release",
      "type": "event"
    },
    {
      "constant": true,
      "inputs": [],
      "name": "viewBalance",
      "outputs": [
        {
          "name": "balance",
          "type": "uint256"
        }
      ],
      "payable": false,
      "stateMutability": "view",
      "type": "function"
    },
    {
      "constant": true,
      "inputs": [
        {
          "name": "a",
          "type": "address"
        }
      ],
      "name": "viewBalance",
      "outputs": [
        {
          "name": "balance",
          "type": "uint256"
        }
      ],
      "payable": false,
      "stateMutability": "view",
      "type": "function"
    },
    {
      "constant": false,
      "inputs": [
        {
          "name": "amount",
          "type": "uint256"
        }
      ],
      "name": "releaseEth",
      "outputs": [],
      "payable": false,
      "stateMutability": "nonpayable",
      "type": "function"
    },
    {
      "constant": false,
      "inputs": [],
      "name": "releaseAllMyEth",
      "outputs": [],
      "payable": false,
      "stateMutability": "nonpayable",
      "type": "function"
    }
  ],
  "bytecode": "0x6060604052603c600055341561001457600080fd5b61060b806100236000396000f30060606040526004361061006d576000357c0100000000000000000000000000000000000000000000000000000000900463ffffffff1680633ff1e05b146101415780634a3f17e71461016a5780637bb78e7c146101be578063c1a13d1a146101d3578063fd4549ef14610220575b34600160003373ffffffffffffffffffffffffffffffffffffffff1673ffffffffffffffffffffffffffffffffffffffff1681526020019081526020016000206000018190555042600160003373ffffffffffffffffffffffffffffffffffffffff1673ffffffffffffffffffffffffffffffffffffffff16815260200190815260200160002060010181905550343373ffffffffffffffffffffffffffffffffffffffff167f39b705486ba97d300457309b46f99af2d6a0b0a6a93839e2c6db2f9b6c28208460405160405180910390a3005b341561014c57600080fd5b610154610243565b6040518082815260200191505060405180910390f35b341561017557600080fd5b6101a1600480803573ffffffffffffffffffffffffffffffffffffffff1690602001909190505061028d565b604051808381526020018281526020019250505060405180910390f35b34156101c957600080fd5b6101d16102b1565b005b34156101de57600080fd5b61020a600480803573ffffffffffffffffffffffffffffffffffffffff1690602001909190505061041a565b6040518082815260200191505060405180910390f35b341561022b57600080fd5b6102416004808035906020019091905050610466565b005b6000600160003373ffffffffffffffffffffffffffffffffffffffff1673ffffffffffffffffffffffffffffffffffffffff16815260200190815260200160002060000154905090565b60016020528060005260406000206000915090508060000154908060010154905082565b60008054600160003373ffffffffffffffffffffffffffffffffffffffff1673ffffffffffffffffffffffffffffffffffffffff16815260200190815260200160002060010154014211151561030657600080fd5b600160003373ffffffffffffffffffffffffffffffffffffffff1673ffffffffffffffffffffffffffffffffffffffff1681526020019081526020016000206000015490503373ffffffffffffffffffffffffffffffffffffffff166108fc829081150290604051600060405180830381858888f19350505050151561038b57600080fd5b6000600160003373ffffffffffffffffffffffffffffffffffffffff1673ffffffffffffffffffffffffffffffffffffffff16815260200190815260200160002060000181905550803373ffffffffffffffffffffffffffffffffffffffff167f0357371d4096e0ddbb7ada206ebd8d2c3e4e9dab69d81b61041d7f98a041150960405160405180910390a350565b6000600160008373ffffffffffffffffffffffffffffffffffffffff1673ffffffffffffffffffffffffffffffffffffffff168152602001908152602001600020600001549050919050565b600054600160003373ffffffffffffffffffffffffffffffffffffffff1673ffffffffffffffffffffffffffffffffffffffff1681526020019081526020016000206001015401421180156104fd575080600160003373ffffffffffffffffffffffffffffffffffffffff1673ffffffffffffffffffffffffffffffffffffffff1681526020019081526020016000206000015410155b151561050857600080fd5b3373ffffffffffffffffffffffffffffffffffffffff166108fc829081150290604051600060405180830381858888f19350505050151561054857600080fd5b80600160003373ffffffffffffffffffffffffffffffffffffffff1673ffffffffffffffffffffffffffffffffffffffff16815260200190815260200160002060000160008282540392505081905550803373ffffffffffffffffffffffffffffffffffffffff167f0357371d4096e0ddbb7ada206ebd8d2c3e4e9dab69d81b61041d7f98a041150960405160405180910390a3505600a165627a7a723058208acf241a4dadccadd4b9da4f25745bd1c906ae8aef4be8e345ae29198ab97f0b0029",
  "source": "pragma solidity ^0.4.17;\n\ncontract Hodler{\n\tevent hodl(address indexed hodler, uint indexed amount);\n\tevent release(address indexed hodler, uint indexed amount);\n\tuint hodlFor = 1 minutes; // possible change: allow for user-set hodl times \n\n\tstruct deposit {\n\t\tuint balance; \n\t\tuint depositTime;\n\t}\n\n\tmapping (address => deposit) public hodlers; //issue: each address can only have one deposit\n\n\tfunction() public payable {\n\t\thodlers[msg.sender].balance = msg.value;\n\t\thodlers[msg.sender].depositTime = block.timestamp;\n\t\thodl(msg.sender, msg.value);\n\t}\n\n\tfunction viewBalance() public view returns (uint balance){\n\t\treturn hodlers[msg.sender].balance; \n\t}\n\n\t// make so only address can check?\n\tfunction viewBalance(address a) public view returns (uint balance){\n\t\treturn hodlers[a].balance;\n\t}\n\n\t// returns partial balance of account \n\tfunction releaseEth(uint amount) public {\n\t\trequire ( (block.timestamp > (hodlers[msg.sender].depositTime + hodlFor))\n\t\t\t && (hodlers[msg.sender].balance >= amount) );\n\t\tmsg.sender.transfer(amount);\n\t\thodlers[msg.sender].balance -= amount;\n\t\trelease(msg.sender, amount);\n\t}\n\n\t// returns total balance of account \n\tfunction releaseAllMyEth() public {\n\t\trequire (block.timestamp > (hodlers[msg.sender].depositTime + hodlFor) );\n                uint b = hodlers[msg.sender].balance;\n                msg.sender.transfer(b);\n                hodlers[msg.sender].balance = 0;\n               \trelease(msg.sender, b);\n\t}\n}\n",
  "sourcePath": "/home/elizabeth/eth-hodler/contracts/Hodler.sol",
  "compiler": {
    "name": "solc",
    "version": "0.4.19+commit.c4cbbb05.Emscripten.clang"
  },
  "schemaVersion": "1.0.1",
  "updatedAt": "2018-03-23T18:16:47.976Z"
}