{
  "contractName": "Hodler",
  "abi": [
    {
      "constant": true,
      "inputs": [
        {
          "name": "",
          "type": "address"
        }
      ],
      "name": "hodlers",
      "outputs": [
        {
          "name": "balance",
          "type": "uint256"
        },
        {
          "name": "depositTime",
          "type": "uint256"
        }
      ],
      "payable": false,
      "stateMutability": "view",
      "type": "function"
    },
    {
      "payable": true,
      "stateMutability": "payable",
      "type": "fallback"
    },
    {
      "anonymous": false,
      "inputs": [
        {
          "indexed": true,
          "name": "hodler",
          "type": "address"
        },
        {
          "indexed": true,
          "name": "amount",
          "type": "uint256"
        }
      ],
      "name": "hodl",
      "type": "event"
    },
    {
      "anonymous": false,
      "inputs": [
        {
          "indexed": true,
          "name": "hodler",
          "type": "address"
        },
        {
          "indexed": true,
          "name": "amount",
          "type": "uint256"
        }
      ],
      "name": "release",
      "type": "event"
    },
    {
      "constant": true,
      "inputs": [],
      "name": "viewBalance",
      "outputs": [
        {
          "name": "balance",
          "type": "uint256"
        }
      ],
      "payable": false,
      "stateMutability": "view",
      "type": "function"
    },
    {
      "constant": false,
      "inputs": [
        {
          "name": "amount",
          "type": "uint256"
        }
      ],
      "name": "releaseEth",
      "outputs": [],
      "payable": false,
      "stateMutability": "nonpayable",
      "type": "function"
    },
    {
      "constant": false,
      "inputs": [],
      "name": "releaseAllEth",
      "outputs": [],
      "payable": false,
      "stateMutability": "nonpayable",
      "type": "function"
    }
  ],
  "bytecode": "0x606060405262278d00600055341561001657600080fd5b610567806100256000396000f300606060405260043610610062576000357c0100000000000000000000000000000000000000000000000000000000900463ffffffff1680633ff1e05b146101365780634a3f17e71461015f5780638bc600d0146101b3578063fd4549ef146101c8575b34600160003373ffffffffffffffffffffffffffffffffffffffff1673ffffffffffffffffffffffffffffffffffffffff1681526020019081526020016000206000018190555042600160003373ffffffffffffffffffffffffffffffffffffffff1673ffffffffffffffffffffffffffffffffffffffff16815260200190815260200160002060010181905550343373ffffffffffffffffffffffffffffffffffffffff167f39b705486ba97d300457309b46f99af2d6a0b0a6a93839e2c6db2f9b6c28208460405160405180910390a3005b341561014157600080fd5b6101496101eb565b6040518082815260200191505060405180910390f35b341561016a57600080fd5b610196600480803573ffffffffffffffffffffffffffffffffffffffff16906020019091905050610235565b604051808381526020018281526020019250505060405180910390f35b34156101be57600080fd5b6101c6610259565b005b34156101d357600080fd5b6101e960048080359060200190919050506103c2565b005b6000600160003373ffffffffffffffffffffffffffffffffffffffff1673ffffffffffffffffffffffffffffffffffffffff16815260200190815260200160002060000154905090565b60016020528060005260406000206000915090508060000154908060010154905082565b60008054600160003373ffffffffffffffffffffffffffffffffffffffff1673ffffffffffffffffffffffffffffffffffffffff1681526020019081526020016000206001015401421115156102ae57600080fd5b600160003373ffffffffffffffffffffffffffffffffffffffff1673ffffffffffffffffffffffffffffffffffffffff1681526020019081526020016000206000015490503373ffffffffffffffffffffffffffffffffffffffff166108fc829081150290604051600060405180830381858888f19350505050151561033357600080fd5b6000600160003373ffffffffffffffffffffffffffffffffffffffff1673ffffffffffffffffffffffffffffffffffffffff16815260200190815260200160002060000181905550803373ffffffffffffffffffffffffffffffffffffffff167f0357371d4096e0ddbb7ada206ebd8d2c3e4e9dab69d81b61041d7f98a041150960405160405180910390a350565b600054600160003373ffffffffffffffffffffffffffffffffffffffff1673ffffffffffffffffffffffffffffffffffffffff168152602001908152602001600020600101540142118015610459575080600160003373ffffffffffffffffffffffffffffffffffffffff1673ffffffffffffffffffffffffffffffffffffffff1681526020019081526020016000206000015410155b151561046457600080fd5b3373ffffffffffffffffffffffffffffffffffffffff166108fc829081150290604051600060405180830381858888f1935050505015156104a457600080fd5b80600160003373ffffffffffffffffffffffffffffffffffffffff1673ffffffffffffffffffffffffffffffffffffffff16815260200190815260200160002060000160008282540392505081905550803373ffffffffffffffffffffffffffffffffffffffff167f0357371d4096e0ddbb7ada206ebd8d2c3e4e9dab69d81b61041d7f98a041150960405160405180910390a3505600a165627a7a723058209ee954bf57783510374fbd213b73a51dfd82ad6cfbe33732eb99ee5913b728970029",
  "source": "pragma solidity ^0.4.17;\n\ncontract Hodler{\n\tevent hodl(address indexed hodler, uint indexed amount);\n\tevent release(address indexed hodler, uint indexed amount);\n\tuint hodlFor = 30 days; \n\n\tstruct deposit {\n\t\tuint balance; \n\t\tuint depositTime;\n\t}\n\n\tmapping (address => deposit) public hodlers; //issue: each address can only have one deposit\n\n\tfunction() public payable {\n\t\thodlers[msg.sender].balance = msg.value;\n\t\thodlers[msg.sender].depositTime = block.timestamp;\n\t\thodl(msg.sender, msg.value);\n\t}\n\n\tfunction viewBalance() public view returns (uint balance){\n\t\treturn hodlers[msg.sender].balance; \n\t}\n\n\tfunction releaseEth(uint amount) public {\n\t\trequire ( (block.timestamp > (hodlers[msg.sender].depositTime + hodlFor))\n\t\t\t && (hodlers[msg.sender].balance >= amount) );\n\t\tmsg.sender.transfer(amount);\n\t\thodlers[msg.sender].balance -= amount;\n\t\trelease(msg.sender, amount);\n\t}\n\n\tfunction releaseAllEth() public {\n\t\trequire (block.timestamp > (hodlers[msg.sender].depositTime + hodlFor) );\n                uint b = hodlers[msg.sender].balance;\n                msg.sender.transfer(b);\n                hodlers[msg.sender].balance = 0;\n               \trelease(msg.sender, b);\n\t}\n}\n",
  "sourcePath": "/home/elizabeth/eth-hodler/contracts/Hodler.sol",
  "compiler": {
    "name": "solc",
    "version": "0.4.19+commit.c4cbbb05.Emscripten.clang"
  },
  "schemaVersion": "1.0.1",
  "updatedAt": "2018-03-19T00:02:02.941Z"
}