{
  "contractName": "First",
  "abi": [
    {
      "constant": false,
      "inputs": [
        {
          "name": "m",
          "type": "string"
        }
      ],
      "name": "writeMessage",
      "outputs": [
        {
          "name": "msgID",
          "type": "uint256"
        }
      ],
      "payable": false,
      "stateMutability": "nonpayable",
      "type": "function"
    },
    {
      "constant": true,
      "inputs": [
        {
          "name": "msgID",
          "type": "uint256"
        }
      ],
      "name": "readMessage",
      "outputs": [
        {
          "name": "s",
          "type": "string"
        }
      ],
      "payable": false,
      "stateMutability": "view",
      "type": "function"
    },
    {
      "constant": true,
      "inputs": [
        {
          "name": "msgID",
          "type": "uint256"
        }
      ],
      "name": "getWriter",
      "outputs": [
        {
          "name": "writer",
          "type": "address"
        }
      ],
      "payable": false,
      "stateMutability": "view",
      "type": "function"
    }
  ],
  "bytecode": "0x606060405260008055341561001357600080fd5b61047a806100226000396000f300606060405260043610610057576000357c0100000000000000000000000000000000000000000000000000000000900463ffffffff168063a7d270561461005c578063b444c95b146100f8578063b588bfad1461015b575b600080fd5b341561006757600080fd5b61007d60048080359060200190919050506101cc565b6040518080602001828103825283818151815260200191508051906020019080838360005b838110156100bd5780820151818401526020810190506100a2565b50505050905090810190601f1680156100ea5780820380516001836020036101000a031916815260200191505b509250505060405180910390f35b341561010357600080fd5b6101196004808035906020019091905050610290565b604051808273ffffffffffffffffffffffffffffffffffffffff1673ffffffffffffffffffffffffffffffffffffffff16815260200191505060405180910390f35b341561016657600080fd5b6101b6600480803590602001908201803590602001908080601f016020809104026020016040519081016040528093929190818152602001838380828437820191505050505050919050506102d5565b6040518082815260200191505060405180910390f35b6101d4610395565b6000600160008481526020019081526020016000209050806001018054600181600116156101000203166002900480601f0160208091040260200160405190810160405280929190818152602001828054600181600116156101000203166002900480156102835780601f1061025857610100808354040283529160200191610283565b820191906000526020600020905b81548152906001019060200180831161026657829003601f168201915b5050505050915050919050565b6000806001600084815260200190815260200160002090508060000160009054906101000a900473ffffffffffffffffffffffffffffffffffffffff16915050919050565b6000600160005401600081905550600054905060408051908101604052803373ffffffffffffffffffffffffffffffffffffffff168152602001838152506001600083815260200190815260200160002060008201518160000160006101000a81548173ffffffffffffffffffffffffffffffffffffffff021916908373ffffffffffffffffffffffffffffffffffffffff16021790555060208201518160010190805190602001906103899291906103a9565b50905050809050919050565b602060405190810160405280600081525090565b828054600181600116156101000203166002900490600052602060002090601f016020900481019282601f106103ea57805160ff1916838001178555610418565b82800160010185558215610418579182015b828111156104175782518255916020019190600101906103fc565b5b5090506104259190610429565b5090565b61044b91905b8082111561044757600081600090555060010161042f565b5090565b905600a165627a7a72305820fc36de48b4e7fdb1964f28951ea2108933e55a0616e1d7cfdfa7594e5b6f81280029",
  "source": "pragma solidity ^0.4.17;\n\ncontract First{\n\tstruct Message {\n\t\taddress writer;\n\t\tstring message;\n\t}\n\n\tuint numMessages = 0;\n\t// uint msgID = 0;\n\tmapping (uint => Message) messageBoard;\n\n\tfunction writeMessage(string m) public returns (uint msgID) {\n\t\tnumMessages = numMessages + 1;\n\t\tmsgID = numMessages;\n\t\tmessageBoard[msgID] = Message(msg.sender, m);\n\t\treturn msgID;\n\t} \n\t\n\tfunction readMessage(uint msgID) public view returns (string s)\n\t{\n\t\tMessage storage m = messageBoard[msgID];\n\t\treturn m.message;\n\t}\n\n\tfunction getWriter(uint msgID) public view returns (address writer){\n\t\tMessage storage m = messageBoard[msgID];\n\t\treturn m.writer;\n\t}\n}\n",
  "sourcePath": "/home/elizabeth/first-solidity/contracts/First.sol",
  "compiler": {
    "name": "solc",
    "version": "0.4.19+commit.c4cbbb05.Emscripten.clang"
  },
  "schemaVersion": "1.0.1",
  "updatedAt": "2018-02-26T17:11:35.801Z"
}