{
  "contractName": "First",
  "abi": [
    {
      "constant": false,
      "inputs": [
        {
          "name": "m",
          "type": "bytes32"
        }
      ],
      "name": "writeMessage",
      "outputs": [
        {
          "name": "msgID",
          "type": "uint256"
        }
      ],
      "payable": false,
      "stateMutability": "nonpayable",
      "type": "function"
    },
    {
      "constant": true,
      "inputs": [
        {
          "name": "msgID",
          "type": "uint256"
        }
      ],
      "name": "getMessage",
      "outputs": [
        {
          "components": [
            {
              "name": "writer",
              "type": "address"
            },
            {
              "name": "message",
              "type": "bytes32"
            }
          ],
          "name": "m",
          "type": "tuple"
        }
      ],
      "payable": false,
      "stateMutability": "view",
      "type": "function"
    },
    {
      "constant": true,
      "inputs": [
        {
          "name": "msgID",
          "type": "uint256"
        }
      ],
      "name": "readMessage",
      "outputs": [
        {
          "name": "s",
          "type": "bytes32"
        }
      ],
      "payable": false,
      "stateMutability": "view",
      "type": "function"
    },
    {
      "constant": true,
      "inputs": [
        {
          "name": "msgID",
          "type": "uint256"
        }
      ],
      "name": "getWriter",
      "outputs": [
        {
          "name": "writer",
          "type": "address"
        }
      ],
      "payable": false,
      "stateMutability": "view",
      "type": "function"
    }
  ],
  "bytecode": "0x606060405260008055341561001357600080fd5b610390806100226000396000f300606060405260043610610062576000357c0100000000000000000000000000000000000000000000000000000000900463ffffffff16806386f79edb14610067578063a7d270561461009e578063b444c95b146100dd578063e97af53d14610140575b600080fd5b341561007257600080fd5b610088600480803590602001909190505061017b565b6040518082815260200191505060405180910390f35b34156100a957600080fd5b6100bf6004808035906020019091905050610210565b60405180826000191660001916815260200191505060405180910390f35b34156100e857600080fd5b6100fe6004808035906020019091905050610235565b604051808273ffffffffffffffffffffffffffffffffffffffff1673ffffffffffffffffffffffffffffffffffffffff16815260200191505060405180910390f35b341561014b57600080fd5b61016560048080356000191690602001909190505061027a565b6040518082815260200191505060405180910390f35b610183610331565b600160008381526020019081526020016000206040805190810160405290816000820160009054906101000a900473ffffffffffffffffffffffffffffffffffffffff1673ffffffffffffffffffffffffffffffffffffffff1673ffffffffffffffffffffffffffffffffffffffff16815260200160018201546000191660001916815250509050919050565b6000806001600084815260200190815260200160002090508060010154915050919050565b6000806001600084815260200190815260200160002090508060000160009054906101000a900473ffffffffffffffffffffffffffffffffffffffff16915050919050565b6000600160005401600081905550600054905060408051908101604052803373ffffffffffffffffffffffffffffffffffffffff16815260200183600019168152506001600083815260200190815260200160002060008201518160000160006101000a81548173ffffffffffffffffffffffffffffffffffffffff021916908373ffffffffffffffffffffffffffffffffffffffff16021790555060208201518160010190600019169055905050809050919050565b6040805190810160405280600073ffffffffffffffffffffffffffffffffffffffff1681526020016000801916815250905600a165627a7a723058200e1e4d003f38038ff662aa4592990f460e385d4ffa754534df9893db0d0a27b70029",
  "source": "pragma solidity ^0.4.17;\n\ncontract First{\n\tstruct Message {\n\t\taddress writer;\n\t\tbytes32 message;\n\t}\n\n\tuint numMessages = 0;\n\t// uint msgID = 0;\n\tmapping (uint => Message) messageBoard;\n\n\tfunction writeMessage(bytes32 m) public returns (uint msgID) {\n\t\tnumMessages = numMessages + 1;\n\t\tmsgID = numMessages;\n\t\tmessageBoard[msgID] = Message(msg.sender, m);\n\t\treturn msgID;\n\t} \n\t\n\tfunction getMessage(uint msgID) public view returns (Message m){\n\t\treturn messageBoard[msgID];\n\t}\n\n\tfunction readMessage(uint msgID) public view returns (bytes32 s)\n\t{\n\t\tMessage m = messageBoard[msgID];\n\t\treturn m.message;\n\t}\n\n\tfunction getWriter(uint msgID) public view returns (address writer){\n\t\tMessage storage m = messageBoard[msgID];\n\t\treturn m.writer;\n\t}\n}\n",
  "sourcePath": "/home/elizabeth/first-solidity/contracts/First.sol",
  "compiler": {
    "name": "solc",
    "version": "0.4.19+commit.c4cbbb05.Emscripten.clang"
  },
  "schemaVersion": "1.0.1",
  "updatedAt": "2018-03-02T21:07:53.439Z"
}